{
  "_format": "hh-sol-artifact-1",
  "contractName": "ExchangeNFT",
  "sourceName": "contracts/ExchangeNFT.sol",
  "abi": [
    {
      "inputs": [
        {
          "internalType": "address",
          "name": "_wvlxAddress",
          "type": "address"
        },
        {
          "internalType": "address",
          "name": "_feeAddress1",
          "type": "address"
        },
        {
          "internalType": "address",
          "name": "_feeAddress2",
          "type": "address"
        }
      ],
      "stateMutability": "nonpayable",
      "type": "constructor"
    },
    {
      "anonymous": false,
      "inputs": [
        {
          "indexed": true,
          "internalType": "address",
          "name": "seller",
          "type": "address"
        },
        {
          "indexed": true,
          "internalType": "address",
          "name": "buyer",
          "type": "address"
        },
        {
          "components": [
            {
              "internalType": "address",
              "name": "seller",
              "type": "address"
            },
            {
              "internalType": "address",
              "name": "buyer",
              "type": "address"
            },
            {
              "internalType": "address",
              "name": "maker",
              "type": "address"
            },
            {
              "internalType": "address",
              "name": "collection",
              "type": "address"
            },
            {
              "internalType": "address",
              "name": "marketplace",
              "type": "address"
            },
            {
              "internalType": "address",
              "name": "creator",
              "type": "address"
            },
            {
              "internalType": "uint256",
              "name": "tokenId",
              "type": "uint256"
            },
            {
              "internalType": "uint256",
              "name": "price",
              "type": "uint256"
            },
            {
              "internalType": "uint256",
              "name": "expiry",
              "type": "uint256"
            },
            {
              "internalType": "uint256",
              "name": "nonce",
              "type": "uint256"
            },
            {
              "internalType": "string",
              "name": "uid",
              "type": "string"
            }
          ],
          "indexed": false,
          "internalType": "struct ExchangeNFT.Order",
          "name": "order",
          "type": "tuple"
        }
      ],
      "name": "Buy",
      "type": "event"
    },
    {
      "anonymous": false,
      "inputs": [
        {
          "indexed": true,
          "internalType": "address",
          "name": "previousOwner",
          "type": "address"
        },
        {
          "indexed": true,
          "internalType": "address",
          "name": "newOwner",
          "type": "address"
        }
      ],
      "name": "OwnershipTransferred",
      "type": "event"
    },
    {
      "anonymous": false,
      "inputs": [
        {
          "indexed": false,
          "internalType": "address",
          "name": "account",
          "type": "address"
        }
      ],
      "name": "Paused",
      "type": "event"
    },
    {
      "anonymous": false,
      "inputs": [
        {
          "indexed": true,
          "internalType": "address",
          "name": "seller",
          "type": "address"
        },
        {
          "indexed": true,
          "internalType": "address",
          "name": "buyer",
          "type": "address"
        },
        {
          "components": [
            {
              "internalType": "address",
              "name": "seller",
              "type": "address"
            },
            {
              "internalType": "address",
              "name": "buyer",
              "type": "address"
            },
            {
              "internalType": "address",
              "name": "maker",
              "type": "address"
            },
            {
              "internalType": "address",
              "name": "collection",
              "type": "address"
            },
            {
              "internalType": "address",
              "name": "marketplace",
              "type": "address"
            },
            {
              "internalType": "address",
              "name": "creator",
              "type": "address"
            },
            {
              "internalType": "uint256",
              "name": "tokenId",
              "type": "uint256"
            },
            {
              "internalType": "uint256",
              "name": "price",
              "type": "uint256"
            },
            {
              "internalType": "uint256",
              "name": "expiry",
              "type": "uint256"
            },
            {
              "internalType": "uint256",
              "name": "nonce",
              "type": "uint256"
            },
            {
              "internalType": "string",
              "name": "uid",
              "type": "string"
            }
          ],
          "indexed": false,
          "internalType": "struct ExchangeNFT.Order",
          "name": "order",
          "type": "tuple"
        }
      ],
      "name": "Sell",
      "type": "event"
    },
    {
      "anonymous": false,
      "inputs": [
        {
          "indexed": true,
          "internalType": "address",
          "name": "sender",
          "type": "address"
        },
        {
          "indexed": true,
          "internalType": "address",
          "name": "receiver",
          "type": "address"
        },
        {
          "indexed": true,
          "internalType": "address",
          "name": "collection",
          "type": "address"
        },
        {
          "indexed": false,
          "internalType": "uint256",
          "name": "tokenId",
          "type": "uint256"
        }
      ],
      "name": "Transfer",
      "type": "event"
    },
    {
      "anonymous": false,
      "inputs": [
        {
          "indexed": false,
          "internalType": "address",
          "name": "account",
          "type": "address"
        }
      ],
      "name": "Unpaused",
      "type": "event"
    },
    {
      "inputs": [
        {
          "internalType": "address",
          "name": "_collection",
          "type": "address"
        },
        {
          "internalType": "uint256",
          "name": "royaltyValue",
          "type": "uint256"
        }
      ],
      "name": "addCollection",
      "outputs": [],
      "stateMutability": "nonpayable",
      "type": "function"
    },
    {
      "inputs": [
        {
          "components": [
            {
              "internalType": "address",
              "name": "seller",
              "type": "address"
            },
            {
              "internalType": "address",
              "name": "buyer",
              "type": "address"
            },
            {
              "internalType": "address",
              "name": "maker",
              "type": "address"
            },
            {
              "internalType": "address",
              "name": "collection",
              "type": "address"
            },
            {
              "internalType": "address",
              "name": "marketplace",
              "type": "address"
            },
            {
              "internalType": "address",
              "name": "creator",
              "type": "address"
            },
            {
              "internalType": "uint256",
              "name": "tokenId",
              "type": "uint256"
            },
            {
              "internalType": "uint256",
              "name": "price",
              "type": "uint256"
            },
            {
              "internalType": "uint256",
              "name": "expiry",
              "type": "uint256"
            },
            {
              "internalType": "uint256",
              "name": "nonce",
              "type": "uint256"
            },
            {
              "internalType": "string",
              "name": "uid",
              "type": "string"
            }
          ],
          "internalType": "struct ExchangeNFT.Order",
          "name": "_order",
          "type": "tuple"
        },
        {
          "internalType": "bytes",
          "name": "_signature",
          "type": "bytes"
        }
      ],
      "name": "buyToken",
      "outputs": [],
      "stateMutability": "payable",
      "type": "function"
    },
    {
      "inputs": [
        {
          "internalType": "uint256",
          "name": "",
          "type": "uint256"
        }
      ],
      "name": "collectionList",
      "outputs": [
        {
          "internalType": "address",
          "name": "",
          "type": "address"
        }
      ],
      "stateMutability": "view",
      "type": "function"
    },
    {
      "inputs": [
        {
          "internalType": "uint256",
          "name": "",
          "type": "uint256"
        }
      ],
      "name": "completedUIDList",
      "outputs": [
        {
          "internalType": "string",
          "name": "",
          "type": "string"
        }
      ],
      "stateMutability": "view",
      "type": "function"
    },
    {
      "inputs": [],
      "name": "feeAddress1",
      "outputs": [
        {
          "internalType": "address",
          "name": "",
          "type": "address"
        }
      ],
      "stateMutability": "view",
      "type": "function"
    },
    {
      "inputs": [],
      "name": "feeAddress2",
      "outputs": [
        {
          "internalType": "address",
          "name": "",
          "type": "address"
        }
      ],
      "stateMutability": "view",
      "type": "function"
    },
    {
      "inputs": [],
      "name": "feeMultipler",
      "outputs": [
        {
          "internalType": "uint256",
          "name": "",
          "type": "uint256"
        }
      ],
      "stateMutability": "view",
      "type": "function"
    },
    {
      "inputs": [],
      "name": "getCollectionList",
      "outputs": [
        {
          "internalType": "address[]",
          "name": "",
          "type": "address[]"
        }
      ],
      "stateMutability": "view",
      "type": "function"
    },
    {
      "inputs": [
        {
          "internalType": "bytes32",
          "name": "_messageHash",
          "type": "bytes32"
        }
      ],
      "name": "getEthSignedMessageHash",
      "outputs": [
        {
          "internalType": "bytes32",
          "name": "",
          "type": "bytes32"
        }
      ],
      "stateMutability": "pure",
      "type": "function"
    },
    {
      "inputs": [
        {
          "internalType": "string",
          "name": "_message",
          "type": "string"
        }
      ],
      "name": "getMessageHash",
      "outputs": [
        {
          "internalType": "bytes32",
          "name": "",
          "type": "bytes32"
        }
      ],
      "stateMutability": "pure",
      "type": "function"
    },
    {
      "inputs": [],
      "name": "marketingFee",
      "outputs": [
        {
          "internalType": "uint256",
          "name": "",
          "type": "uint256"
        }
      ],
      "stateMutability": "view",
      "type": "function"
    },
    {
      "inputs": [
        {
          "internalType": "address",
          "name": "",
          "type": "address"
        },
        {
          "internalType": "address",
          "name": "",
          "type": "address"
        },
        {
          "internalType": "uint256",
          "name": "",
          "type": "uint256"
        },
        {
          "internalType": "bytes",
          "name": "",
          "type": "bytes"
        }
      ],
      "name": "onERC721Received",
      "outputs": [
        {
          "internalType": "bytes4",
          "name": "",
          "type": "bytes4"
        }
      ],
      "stateMutability": "nonpayable",
      "type": "function"
    },
    {
      "inputs": [],
      "name": "owner",
      "outputs": [
        {
          "internalType": "address",
          "name": "",
          "type": "address"
        }
      ],
      "stateMutability": "view",
      "type": "function"
    },
    {
      "inputs": [],
      "name": "paused",
      "outputs": [
        {
          "internalType": "bool",
          "name": "",
          "type": "bool"
        }
      ],
      "stateMutability": "view",
      "type": "function"
    },
    {
      "inputs": [
        {
          "internalType": "bytes32",
          "name": "_ethSignedMessageHash",
          "type": "bytes32"
        },
        {
          "internalType": "bytes",
          "name": "_signature",
          "type": "bytes"
        }
      ],
      "name": "recoverSigner",
      "outputs": [
        {
          "internalType": "address",
          "name": "",
          "type": "address"
        }
      ],
      "stateMutability": "pure",
      "type": "function"
    },
    {
      "inputs": [],
      "name": "renounceOwnership",
      "outputs": [],
      "stateMutability": "nonpayable",
      "type": "function"
    },
    {
      "inputs": [
        {
          "components": [
            {
              "internalType": "address",
              "name": "seller",
              "type": "address"
            },
            {
              "internalType": "address",
              "name": "buyer",
              "type": "address"
            },
            {
              "internalType": "address",
              "name": "maker",
              "type": "address"
            },
            {
              "internalType": "address",
              "name": "collection",
              "type": "address"
            },
            {
              "internalType": "address",
              "name": "marketplace",
              "type": "address"
            },
            {
              "internalType": "address",
              "name": "creator",
              "type": "address"
            },
            {
              "internalType": "uint256",
              "name": "tokenId",
              "type": "uint256"
            },
            {
              "internalType": "uint256",
              "name": "price",
              "type": "uint256"
            },
            {
              "internalType": "uint256",
              "name": "expiry",
              "type": "uint256"
            },
            {
              "internalType": "uint256",
              "name": "nonce",
              "type": "uint256"
            },
            {
              "internalType": "string",
              "name": "uid",
              "type": "string"
            }
          ],
          "internalType": "struct ExchangeNFT.Order",
          "name": "_order",
          "type": "tuple"
        }
      ],
      "name": "sellToken",
      "outputs": [],
      "stateMutability": "nonpayable",
      "type": "function"
    },
    {
      "inputs": [
        {
          "internalType": "address",
          "name": "_feeAddress1",
          "type": "address"
        },
        {
          "internalType": "address",
          "name": "_feeAddress2",
          "type": "address"
        }
      ],
      "name": "setFeeAddress",
      "outputs": [],
      "stateMutability": "nonpayable",
      "type": "function"
    },
    {
      "inputs": [
        {
          "internalType": "uint256",
          "name": "_marketingFee",
          "type": "uint256"
        }
      ],
      "name": "setMarketingFee",
      "outputs": [],
      "stateMutability": "nonpayable",
      "type": "function"
    },
    {
      "inputs": [
        {
          "internalType": "bytes",
          "name": "sig",
          "type": "bytes"
        }
      ],
      "name": "splitSignature",
      "outputs": [
        {
          "internalType": "bytes32",
          "name": "r",
          "type": "bytes32"
        },
        {
          "internalType": "bytes32",
          "name": "s",
          "type": "bytes32"
        },
        {
          "internalType": "uint8",
          "name": "v",
          "type": "uint8"
        }
      ],
      "stateMutability": "pure",
      "type": "function"
    },
    {
      "inputs": [
        {
          "internalType": "address",
          "name": "newOwner",
          "type": "address"
        }
      ],
      "name": "transferOwnership",
      "outputs": [],
      "stateMutability": "nonpayable",
      "type": "function"
    },
    {
      "inputs": [
        {
          "internalType": "address",
          "name": "_collection",
          "type": "address"
        },
        {
          "internalType": "address",
          "name": "_to",
          "type": "address"
        },
        {
          "internalType": "uint256",
          "name": "_tokenId",
          "type": "uint256"
        }
      ],
      "name": "transferToken",
      "outputs": [],
      "stateMutability": "nonpayable",
      "type": "function"
    },
    {
      "inputs": [
        {
          "components": [
            {
              "internalType": "address",
              "name": "seller",
              "type": "address"
            },
            {
              "internalType": "address",
              "name": "buyer",
              "type": "address"
            },
            {
              "internalType": "address",
              "name": "maker",
              "type": "address"
            },
            {
              "internalType": "address",
              "name": "collection",
              "type": "address"
            },
            {
              "internalType": "address",
              "name": "marketplace",
              "type": "address"
            },
            {
              "internalType": "address",
              "name": "creator",
              "type": "address"
            },
            {
              "internalType": "uint256",
              "name": "tokenId",
              "type": "uint256"
            },
            {
              "internalType": "uint256",
              "name": "price",
              "type": "uint256"
            },
            {
              "internalType": "uint256",
              "name": "expiry",
              "type": "uint256"
            },
            {
              "internalType": "uint256",
              "name": "nonce",
              "type": "uint256"
            },
            {
              "internalType": "string",
              "name": "uid",
              "type": "string"
            }
          ],
          "internalType": "struct ExchangeNFT.Order",
          "name": "_order",
          "type": "tuple"
        },
        {
          "internalType": "bytes",
          "name": "signature",
          "type": "bytes"
        }
      ],
      "name": "verify",
      "outputs": [
        {
          "internalType": "bool",
          "name": "",
          "type": "bool"
        }
      ],
      "stateMutability": "pure",
      "type": "function"
    },
    {
      "inputs": [],
      "name": "wvlxToken",
      "outputs": [
        {
          "internalType": "contract IERC20",
          "name": "",
          "type": "address"
        }
      ],
      "stateMutability": "view",
      "type": "function"
    },
    {
      "stateMutability": "payable",
      "type": "receive"
    }
  ],
  "bytecode": "0x60806040526127106002556101136003553480156200001d57600080fd5b5060405162002ddc38038062002ddc833981016040819052620000409162000108565b6200004b336200009b565b6000805460ff60a01b19169055600180546001600160a01b039485166001600160a01b03199182161790915560048054938516938216939093179092556005805491909316911617905562000151565b600080546001600160a01b038381166001600160a01b0319831681178455604051919092169283917f8be0079c531659141344cd1fd0a4f28419497f9722a3daafe3b4186f6b6457e09190a35050565b80516001600160a01b03811681146200010357600080fd5b919050565b6000806000606084860312156200011d578283fd5b6200012884620000eb565b92506200013860208501620000eb565b91506200014860408501620000eb565b90509250925092565b612c7b80620001616000396000f3fe60806040526004361061014f5760003560e01c80638da5cb5b116100b6578063e2c851631161006f578063e2c85163146103e9578063eb78f95e14610416578063f2fde38b14610436578063f5537ede14610456578063f66d972b14610476578063fa5408011461049657600080fd5b80638da5cb5b1461032457806397aba7f914610342578063a7bb580314610362578063b446f3b2146103a0578063cd94503d146103c0578063da36079e146103d357600080fd5b806361b3980d1161010857806361b3980d1461026b578063625e764c1461028b57806368b6f0a8146102ab5780636b67c4df146102cb578063715018a6146102ef578063752d121c1461030457600080fd5b80630e89ab4c1461015b578063150b7a021461017d57806319f101fa146101c65780631b3b8b79146101e6578063361eaa531461021e5780635c975abb1461024057600080fd5b3661015657005b600080fd5b34801561016757600080fd5b5061017b610176366004612409565b6104b6565b005b34801561018957600080fd5b506101a86101983660046122c4565b630a85bd0160e11b949350505050565b6040516001600160e01b031990911681526020015b60405180910390f35b3480156101d257600080fd5b5061017b6101e136600461232e565b610abb565b3480156101f257600080fd5b50600454610206906001600160a01b031681565b6040516001600160a01b0390911681526020016101bd565b34801561022a57600080fd5b50610233610b5d565b6040516101bd9190612686565b34801561024c57600080fd5b50600054600160a01b900460ff165b60405190151581526020016101bd565b34801561027757600080fd5b5061017b61028636600461224c565b610bbf565b34801561029757600080fd5b5061017b6102a6366004612379565b610c17565b3480156102b757600080fd5b5061025b6102c636600461243c565b610c46565b3480156102d757600080fd5b506102e160035481565b6040519081526020016101bd565b3480156102fb57600080fd5b5061017b610d26565b34801561031057600080fd5b5061020661031f366004612379565b610d5c565b34801561033057600080fd5b506000546001600160a01b0316610206565b34801561034e57600080fd5b5061020661035d366004612391565b610d86565b34801561036e57600080fd5b5061038261037d3660046123d6565b610e05565b60408051938452602084019290925260ff16908201526060016101bd565b3480156103ac57600080fd5b506102e16103bb3660046123d6565b610e79565b61017b6103ce36600461243c565b610ea9565b3480156103df57600080fd5b506102e160025481565b3480156103f557600080fd5b50610409610404366004612379565b6113d5565b6040516101bd91906126d3565b34801561042257600080fd5b50600554610206906001600160a01b031681565b34801561044257600080fd5b5061017b610451366004612214565b611481565b34801561046257600080fd5b5061017b610471366004612284565b61151c565b34801561048257600080fd5b50600154610206906001600160a01b031681565b3480156104a257600080fd5b506102e16104b1366004612379565b611775565b6104c48161014001516117b0565b156105165760405162461bcd60e51b815260206004820152601f60248201527f54686973206f7264657220697320636f6d706c6574656420616c72656164790060448201526064015b60405180910390fd5b33158015906105255750333014155b6105415760405162461bcd60e51b815260040161050d90612752565b80602001516001600160a01b031681600001516001600160a01b0316141561059a5760405162461bcd60e51b815260206004820152600c60248201526b2bb937b7339029b2b63632b960a11b604482015260640161050d565b80516001600160a01b031633146105e25760405162461bcd60e51b815260206004820152600c60248201526b2bb937b7339029b2b63632b960a11b604482015260640161050d565b80604001516001600160a01b0316336001600160a01b0316146106355760405162461bcd60e51b815260206004820152600b60248201526a2bb937b7339026b0b5b2b960a91b604482015260640161050d565b606081015160c08201516040516331a9108f60e11b81526001600160a01b0390921691636352211e9161066e9160040190815260200190565b60206040518083038186803b15801561068657600080fd5b505afa15801561069a573d6000803e3d6000fd5b505050506040513d601f19601f820116820180604052508101906106be9190612230565b6001600160a01b0316336001600160a01b03161461071e5760405162461bcd60e51b815260206004820152601f60248201527f4f6e6c7920546f6b656e204f776e65722063616e2073656c6c20746f6b656e00604482015260640161050d565b60008160e00151116107725760405162461bcd60e51b815260206004820152601c60248201527f5072696365206d7573742062652067726561746572207468616e203000000000604482015260640161050d565b4281610100015110156107b75760405162461bcd60e51b815260206004820152600d60248201526c22bc3834b932b21027b93232b960991b604482015260640161050d565b6107c4816060015161185f565b6107e05760405162461bcd60e51b815260040161050d9061271b565b60006108076002546108016003548560e001516118cf90919063ffffffff16565b906118e2565b9050600061083560025461080161082186606001516118ee565b6020015160e08701519062ffffff166118cf565b90506000610851610846848461193d565b60e086015190611949565b602085015160a0860151600154929350610876926001600160a01b0316919085611955565b6020840151600154610895916001600160a01b03909116903384611955565b60208401516004546108ca91906001600160a01b03166108b66002876128bb565b6001546001600160a01b0316929190611955565b60208401516005546108eb91906001600160a01b03166108b66002876128bb565b6060840151602085015160c0860151604051632142170760e11b81526001600160a01b03909316926342842e0e92610927923392600401612662565b600060405180830381600087803b15801561094157600080fd5b505af1925050508015610952575060015b610a585761095e612b72565b806308c379a014156109c65750610973612b8a565b8061097e57506109e0565b60405162461bcd60e51b815260206004820152601b60248201527f54686973206f72646572206973206e6f7420636f6d706c657465640000000000604482015260640161050d565b634e487b7114156109e0576109d9612c14565b9061097e57505b3d808015610a0a576040519150601f19603f3d011682016040523d82523d6000602084013e610a0f565b606091505b5060405162461bcd60e51b815260206004820152601b60248201527f54686973206f72646572206973206e6f7420636f6d706c657465640000000000604482015260640161050d565b610a668461014001516119b3565b83602001516001600160a01b0316336001600160a01b03167fb807405212f2d57a0659af046a9e521b2cda5b6349e7b47ab2dd3decd5a5251986604051610aad919061277c565b60405180910390a350505050565b610ac48261185f565b15610b045760405162461bcd60e51b815260206004820152601060248201526f10dbdb1b1958dd1a5bdb88195e1a5cdd60821b604482015260640161050d565b600680546001810182556000919091527ff652222313e28459528d920b65115c16c04f3efc82aaedc97be59f3f377c0d3f0180546001600160a01b0319166001600160a01b038416179055610b5982826119f6565b5050565b60606006805480602002602001604051908101604052809291908181526020018280548015610bb557602002820191906000526020600020905b81546001600160a01b03168152600190910190602001808311610b97575b5050505050905090565b6000546001600160a01b03163314610be95760405162461bcd60e51b815260040161050d906126e6565b600480546001600160a01b039384166001600160a01b03199182161790915560058054929093169116179055565b6000546001600160a01b03163314610c415760405162461bcd60e51b815260040161050d906126e6565b600355565b600080610c57846101200151611a98565b846101400151610c6b866101000151611a98565b610c788760600151611bbd565b610c858860e00151611a98565b610c928960c00151611a98565b610c9f8a60a00151611bbd565b8a51610caa90611bbd565b610cb78c60800151611bbd565b604051602001610ccf999897969594939291906124db565b60405160208183030381529060405290506000610ceb82610e79565b90506000610cf882611775565b86519091506001600160a01b0316610d108287610d86565b6001600160a01b03161493505050505b92915050565b6000546001600160a01b03163314610d505760405162461bcd60e51b815260040161050d906126e6565b610d5a6000611d42565b565b60068181548110610d6c57600080fd5b6000918252602090912001546001600160a01b0316905081565b600080600080610d9585610e05565b6040805160008152602081018083528b905260ff8316918101919091526060810184905260808101839052929550909350915060019060a0016020604051602081039080840390855afa158015610df0573d6000803e3d6000fd5b5050604051601f190151979650505050505050565b60008060008351604114610e5b5760405162461bcd60e51b815260206004820152601860248201527f696e76616c6964207369676e6174757265206c656e6774680000000000000000604482015260640161050d565b50505060208101516040820151606090920151909260009190911a90565b600081604051602001610e8c91906124bf565b604051602081830303815290604052805190602001209050919050565b610eb78261014001516117b0565b15610f045760405162461bcd60e51b815260206004820152601f60248201527f54686973206f7264657220697320636f6d706c6574656420616c726561647900604482015260640161050d565b610f0e8282610c46565b610f505760405162461bcd60e51b81526020600482015260136024820152722330b4b632b2102b32b934b334b1b0ba34b7b760691b604482015260640161050d565b3315801590610f5f5750333014155b610f7b5760405162461bcd60e51b815260040161050d90612752565b81602001516001600160a01b031682600001516001600160a01b03161415610fda5760405162461bcd60e51b815260206004820152601260248201527153656c6c65722063616e206e6f742062757960701b604482015260640161050d565b81602001516001600160a01b0316336001600160a01b03161461102d5760405162461bcd60e51b815260206004820152600b60248201526a2bb937b73390213abcb2b960a91b604482015260640161050d565b81604001516001600160a01b0316336001600160a01b0316146110805760405162461bcd60e51b815260206004820152600b60248201526a2bb937b7339026b0b5b2b960a91b604482015260640161050d565b60008260e0015111801561109857508160e001513410155b6110e45760405162461bcd60e51b815260206004820152601c60248201527f5072696365206d7573742062652067726561746572207468616e203000000000604482015260640161050d565b4282610100015110156111295760405162461bcd60e51b815260206004820152600d60248201526c22bc3834b932b21027b93232b960991b604482015260640161050d565b611136826060015161185f565b6111525760405162461bcd60e51b815260040161050d9061271b565b60006111736002546108016003548660e001516118cf90919063ffffffff16565b905060006111a160025461080161118d87606001516118ee565b6020015160e08801519062ffffff166118cf565b905060006111bd6111b2848461193d565b60e087015190611949565b60a08601516040519192506001600160a01b03169083156108fc029084906000818181858888f193505050501580156111fa573d6000803e3d6000fd5b5084516040516001600160a01b039091169082156108fc029083906000818181858888f19350505050158015611234573d6000803e3d6000fd5b506004546001600160a01b03166108fc61124f6002866128bb565b6040518115909202916000818181858888f19350505050158015611277573d6000803e3d6000fd5b506005546001600160a01b03166108fc6112926002866128bb565b6040518115909202916000818181858888f193505050501580156112ba573d6000803e3d6000fd5b508460e001513411156113075760e085015133906108fc906112dd903490611949565b6040518115909202916000818181858888f19350505050158015611305573d6000803e3d6000fd5b505b6060850151855160c0870151604051632142170760e11b81526001600160a01b03909316926342842e0e92611343929091339190600401612662565b600060405180830381600087803b15801561135d57600080fd5b505af192505050801561136e575060015b61137a5761095e612b72565b6113888561014001516119b3565b845160405133916001600160a01b0316907ff66a2d3d52db137a0ebfbe9aaf856bc6369f9bc14e5645d2cacdcd06957fdfda906113c690899061277c565b60405180910390a35050505050565b600781815481106113e557600080fd5b90600052602060002001600091509050805461140090612a99565b80601f016020809104026020016040519081016040528092919081815260200182805461142c90612a99565b80156114795780601f1061144e57610100808354040283529160200191611479565b820191906000526020600020905b81548152906001019060200180831161145c57829003601f168201915b505050505081565b6000546001600160a01b031633146114ab5760405162461bcd60e51b815260040161050d906126e6565b6001600160a01b0381166115105760405162461bcd60e51b815260206004820152602660248201527f4f776e61626c653a206e6577206f776e657220697320746865207a65726f206160448201526564647265737360d01b606482015260840161050d565b61151981611d42565b50565b33158015906115345750336001600160a01b03831614155b6115505760405162461bcd60e51b815260040161050d90612752565b6001600160a01b0382161580159061157157506001600160a01b0382163014155b6115ae5760405162461bcd60e51b815260206004820152600e60248201526d2bb937b733903932b1b2b4bb32b960911b604482015260640161050d565b6040516331a9108f60e11b8152600481018290526001600160a01b03841690636352211e9060240160206040518083038186803b1580156115ee57600080fd5b505afa158015611602573d6000803e3d6000fd5b505050506040513d601f19601f820116820180604052508101906116269190612230565b6001600160a01b0316336001600160a01b0316146116925760405162461bcd60e51b815260206004820152602360248201527f4f6e6c7920546f6b656e204f776e65722063616e207472616e7366657220746f60448201526235b2b760e91b606482015260840161050d565b61169b8361185f565b6116b75760405162461bcd60e51b815260040161050d9061271b565b604051632142170760e11b81526001600160a01b038416906342842e0e906116e790339086908690600401612662565b600060405180830381600087803b15801561170157600080fd5b505af1158015611715573d6000803e3d6000fd5b50505050826001600160a01b0316826001600160a01b0316336001600160a01b03167fd1398bee19313d6bf672ccb116e51f4a1a947e91c757907f51fbb5b5e56c698f8460405161176891815260200190565b60405180910390a4505050565b6040517f19457468657265756d205369676e6564204d6573736167653a0a3332000000006020820152603c8101829052600090605c01610e8c565b600080805b60075481101561185857836040516020016117d091906124bf565b604051602081830303815290604052805190602001206007828154811061180757634e487b7160e01b600052603260045260246000fd5b90600052602060002001604051602001611821919061259d565b6040516020818303038152906040528051906020012014156118465760019150611858565b8061185081612b01565b9150506117b5565b5092915050565b600080805b60065481101561185857836001600160a01b03166006828154811061189957634e487b7160e01b600052603260045260246000fd5b6000918252602090912001546001600160a01b031614156118bd5760019150611858565b806118c781612b01565b915050611864565b60006118db82846129dc565b9392505050565b60006118db82846128bb565b604080518082018252600080825260209182018190526001600160a01b039384168152600882528290208251808401909352549283168252600160a01b90920462ffffff169181019190915290565b60006118db828461287e565b60006118db8284612a1c565b6119ad846323b872dd60e01b85858560405160240161197693929190612662565b60408051601f198184030181529190526020810180516001600160e01b03166001600160e01b031990931692909217909152611d92565b50505050565b600780546001810182556000919091528151610b59917fa66cc928b5edb82af9bd49922954155ab7b0942694bea4ce44661d9a8736c68801906020840190612025565b612710811115611a3e5760405162461bcd60e51b81526020600482015260136024820152720a4def2c2d8e8f240d2e640a8dede40d0d2ced606b1b604482015260640161050d565b6040805180820182526001600160a01b0393841680825262ffffff9384166020808401918252600092835260089052929020905181549251909316600160a01b026001600160b81b03199092169290931691909117179055565b606081611abc5750506040805180820190915260018152600360fc1b602082015290565b8160005b8115611ae65780611ad081612b01565b9150611adf9050600a836128bb565b9150611ac0565b60008167ffffffffffffffff811115611b0f57634e487b7160e01b600052604160045260246000fd5b6040519080825280601f01601f191660200182016040528015611b39576020820181803683370190505b508593509050815b8315611bb457611b52600a85612b1c565b611b5d90603061287e565b60f81b82611b6a83612a82565b92508281518110611b8b57634e487b7160e01b600052603260045260246000fd5b60200101906001600160f81b031916908160001a905350611bad600a856128bb565b9350611b41565b50949350505050565b60408051602880825260608281019093526000919060208201818036833701905050905060005b6014811015611d19576000611bfa826013612a1c565b611c059060086129dc565b611c10906002612934565b611c23906001600160a01b0387166128bb565b60f81b9050600060108260f81c611c3a91906128cf565b60f81b905060008160f81c6010611c5191906129fb565b8360f81c611c5f9190612a33565b60f81b9050611c6d82611e69565b85611c798660026129dc565b81518110611c9757634e487b7160e01b600052603260045260246000fd5b60200101906001600160f81b031916908160001a905350611cb781611e69565b85611cc38660026129dc565b611cce90600161287e565b81518110611cec57634e487b7160e01b600052603260045260246000fd5b60200101906001600160f81b031916908160001a9053505050508080611d1190612b01565b915050611be4565b5080604051602001611d2b9190612638565b604051602081830303815290604052915050919050565b600080546001600160a01b038381166001600160a01b0319831681178455604051919092169283917f8be0079c531659141344cd1fd0a4f28419497f9722a3daafe3b4186f6b6457e09190a35050565b6000611de7826040518060400160405280602081526020017f5361666545524332303a206c6f772d6c6576656c2063616c6c206661696c6564815250856001600160a01b0316611ea49092919063ffffffff16565b805190915015611e645780806020019051810190611e059190612359565b611e645760405162461bcd60e51b815260206004820152602a60248201527f5361666545524332303a204552433230206f7065726174696f6e20646964206e6044820152691bdd081cdd58d8d9595960b21b606482015260840161050d565b505050565b6000600a60f883901c1015611e9057611e8760f883901c6030612896565b60f81b92915050565b611e8760f883901c6057612896565b919050565b6060611eb38484600085611ebb565b949350505050565b606082471015611f1c5760405162461bcd60e51b815260206004820152602660248201527f416464726573733a20696e73756666696369656e742062616c616e636520666f6044820152651c8818d85b1b60d21b606482015260840161050d565b6001600160a01b0385163b611f735760405162461bcd60e51b815260206004820152601d60248201527f416464726573733a2063616c6c20746f206e6f6e2d636f6e7472616374000000604482015260640161050d565b600080866001600160a01b03168587604051611f8f91906124bf565b60006040518083038185875af1925050503d8060008114611fcc576040519150601f19603f3d011682016040523d82523d6000602084013e611fd1565b606091505b5091509150611fe1828286611fec565b979650505050505050565b60608315611ffb5750816118db565b82511561200b5782518084602001fd5b8160405162461bcd60e51b815260040161050d91906126d3565b82805461203190612a99565b90600052602060002090601f0160209004810192826120535760008555612099565b82601f1061206c57805160ff1916838001178555612099565b82800160010185558215612099579182015b8281111561209957825182559160200191906001019061207e565b506120a59291506120a9565b5090565b5b808211156120a557600081556001016120aa565b8035611e9f81612c30565b600082601f8301126120d9578081fd5b813567ffffffffffffffff8111156120f3576120f3612b5c565b60405161210a601f8301601f191660200182612ad4565b81815284602083860101111561211e578283fd5b816020850160208301379081016020019190915292915050565b6000610160828403121561214a578081fd5b612152612854565b905061215d826120be565b815261216b602083016120be565b602082015261217c604083016120be565b604082015261218d606083016120be565b606082015261219e608083016120be565b60808201526121af60a083016120be565b60a082015260c082013560c082015260e082013560e08201526101008083013581830152506101208083013581830152506101408083013567ffffffffffffffff8111156121fc57600080fd5b612208858286016120c9565b82840152505092915050565b600060208284031215612225578081fd5b81356118db81612c30565b600060208284031215612241578081fd5b81516118db81612c30565b6000806040838503121561225e578081fd5b823561226981612c30565b9150602083013561227981612c30565b809150509250929050565b600080600060608486031215612298578081fd5b83356122a381612c30565b925060208401356122b381612c30565b929592945050506040919091013590565b600080600080608085870312156122d9578081fd5b84356122e481612c30565b935060208501356122f481612c30565b925060408501359150606085013567ffffffffffffffff811115612316578182fd5b612322878288016120c9565b91505092959194509250565b60008060408385031215612340578182fd5b823561234b81612c30565b946020939093013593505050565b60006020828403121561236a578081fd5b815180151581146118db578182fd5b60006020828403121561238a578081fd5b5035919050565b600080604083850312156123a3578182fd5b82359150602083013567ffffffffffffffff8111156123c0578182fd5b6123cc858286016120c9565b9150509250929050565b6000602082840312156123e7578081fd5b813567ffffffffffffffff8111156123fd578182fd5b611eb3848285016120c9565b60006020828403121561241a578081fd5b813567ffffffffffffffff811115612430578182fd5b611eb384828501612138565b6000806040838503121561244e578182fd5b823567ffffffffffffffff80821115612465578384fd5b61247186838701612138565b93506020850135915080821115612486578283fd5b506123cc858286016120c9565b600081518084526124ab816020860160208601612a56565b601f01601f19169290920160200192915050565b600082516124d1818460208701612a56565b9190910192915050565b60008a516124ed818460208f01612a56565b8a5190830190612501818360208f01612a56565b8a516125138183850160208f01612a56565b8a51929091010190612529818360208d01612a56565b885161253b8183850160208d01612a56565b8851929091010190612551818360208b01612a56565b86516125638183850160208b01612a56565b8651929091010190612579818360208901612a56565b845161258b8183850160208901612a56565b9101019b9a5050505050505050505050565b600080835482600182811c9150808316806125b957607f831692505b60208084108214156125d957634e487b7160e01b87526022600452602487fd5b8180156125ed57600181146125fe5761262a565b60ff1986168952848901965061262a565b60008a815260209020885b868110156126225781548b820152908501908301612609565b505084890196505b509498975050505050505050565b61060f60f31b815260008251612655816002850160208701612a56565b9190910160020192915050565b6001600160a01b039384168152919092166020820152604081019190915260600190565b6020808252825182820181905260009190848201906040850190845b818110156126c75783516001600160a01b0316835292840192918401916001016126a2565b50909695505050505050565b6020815260006118db6020830184612493565b6020808252818101527f4f776e61626c653a2063616c6c6572206973206e6f7420746865206f776e6572604082015260600190565b60208082526018908201527f436f6c6c656374696f6e20646f65736e27742065786973740000000000000000604082015260600190565b60208082526010908201526f2bb937b7339036b9b39039b2b73232b960811b604082015260600190565b602081526127966020820183516001600160a01b03169052565b600060208301516127b260408401826001600160a01b03169052565b5060408301516001600160a01b03811660608401525060608301516001600160a01b03811660808401525060808301516001600160a01b03811660a08401525060a08301516001600160a01b03811660c08401525060c083015160e08381019190915283015161010080840191909152830151610120808401919091528301516101408084019190915283015161016080840152611eb3610180840182612493565b604051610160810167ffffffffffffffff8111828210171561287857612878612b5c565b60405290565b6000821982111561289157612891612b30565b500190565b600060ff821660ff84168060ff038211156128b3576128b3612b30565b019392505050565b6000826128ca576128ca612b46565b500490565b600060ff8316806128e2576128e2612b46565b8060ff84160491505092915050565b600181815b8085111561292c57816000190482111561291257612912612b30565b8085161561291f57918102915b93841c93908002906128f6565b509250929050565b60006118db838360008261294a57506001610d20565b8161295757506000610d20565b816001811461296d576002811461297757612993565b6001915050610d20565b60ff84111561298857612988612b30565b50506001821b610d20565b5060208310610133831016604e8410600b84101617156129b6575081810a610d20565b6129c083836128f1565b80600019048211156129d4576129d4612b30565b029392505050565b60008160001904831182151516156129f6576129f6612b30565b500290565b600060ff821660ff84168160ff04811182151516156129d4576129d4612b30565b600082821015612a2e57612a2e612b30565b500390565b600060ff821660ff841680821015612a4d57612a4d612b30565b90039392505050565b60005b83811015612a71578181015183820152602001612a59565b838111156119ad5750506000910152565b600081612a9157612a91612b30565b506000190190565b600181811c90821680612aad57607f821691505b60208210811415612ace57634e487b7160e01b600052602260045260246000fd5b50919050565b601f8201601f1916810167ffffffffffffffff81118282101715612afa57612afa612b5c565b6040525050565b6000600019821415612b1557612b15612b30565b5060010190565b600082612b2b57612b2b612b46565b500690565b634e487b7160e01b600052601160045260246000fd5b634e487b7160e01b600052601260045260246000fd5b634e487b7160e01b600052604160045260246000fd5b600060033d1115612b8757600481823e5160e01c5b90565b600060443d1015612b985790565b6040516003193d81016004833e81513d67ffffffffffffffff8160248401118184111715612bc857505050505090565b8285019150815181811115612be05750505050505090565b843d8701016020828501011115612bfa5750505050505090565b612c0960208286010187612ad4565b509095945050505050565b60008060233d1115612c2c5760206004833e51600191505b9091565b6001600160a01b038116811461151957600080fdfea264697066735822122026d06ba9cc8d9e525c0f111875eab15e22f71c152a87d8202e79d0f5174f4b9264736f6c63430008040033",
  "linkReferences": {},
  "deployedLinkReferences": {}
}