{
  "_format": "hh-sol-artifact-1",
  "contractName": "VLXNFT",
  "sourceName": "contracts/VLXNFT.sol",
  "abi": [
    {
      "inputs": [
        {
          "internalType": "string",
          "name": "name",
          "type": "string"
        },
        {
          "internalType": "string",
          "name": "symbol",
          "type": "string"
        }
      ],
      "stateMutability": "nonpayable",
      "type": "constructor"
    },
    {
      "anonymous": false,
      "inputs": [
        {
          "indexed": true,
          "internalType": "address",
          "name": "owner",
          "type": "address"
        },
        {
          "indexed": true,
          "internalType": "address",
          "name": "approved",
          "type": "address"
        },
        {
          "indexed": true,
          "internalType": "uint256",
          "name": "tokenId",
          "type": "uint256"
        }
      ],
      "name": "Approval",
      "type": "event"
    },
    {
      "anonymous": false,
      "inputs": [
        {
          "indexed": true,
          "internalType": "address",
          "name": "owner",
          "type": "address"
        },
        {
          "indexed": true,
          "internalType": "address",
          "name": "operator",
          "type": "address"
        },
        {
          "indexed": false,
          "internalType": "bool",
          "name": "approved",
          "type": "bool"
        }
      ],
      "name": "ApprovalForAll",
      "type": "event"
    },
    {
      "anonymous": false,
      "inputs": [
        {
          "indexed": true,
          "internalType": "address",
          "name": "previousOwner",
          "type": "address"
        },
        {
          "indexed": true,
          "internalType": "address",
          "name": "newOwner",
          "type": "address"
        }
      ],
      "name": "OwnershipTransferred",
      "type": "event"
    },
    {
      "anonymous": false,
      "inputs": [
        {
          "indexed": true,
          "internalType": "bytes32",
          "name": "role",
          "type": "bytes32"
        },
        {
          "indexed": true,
          "internalType": "bytes32",
          "name": "previousAdminRole",
          "type": "bytes32"
        },
        {
          "indexed": true,
          "internalType": "bytes32",
          "name": "newAdminRole",
          "type": "bytes32"
        }
      ],
      "name": "RoleAdminChanged",
      "type": "event"
    },
    {
      "anonymous": false,
      "inputs": [
        {
          "indexed": true,
          "internalType": "bytes32",
          "name": "role",
          "type": "bytes32"
        },
        {
          "indexed": true,
          "internalType": "address",
          "name": "account",
          "type": "address"
        },
        {
          "indexed": true,
          "internalType": "address",
          "name": "sender",
          "type": "address"
        }
      ],
      "name": "RoleGranted",
      "type": "event"
    },
    {
      "anonymous": false,
      "inputs": [
        {
          "indexed": true,
          "internalType": "bytes32",
          "name": "role",
          "type": "bytes32"
        },
        {
          "indexed": true,
          "internalType": "address",
          "name": "account",
          "type": "address"
        },
        {
          "indexed": true,
          "internalType": "address",
          "name": "sender",
          "type": "address"
        }
      ],
      "name": "RoleRevoked",
      "type": "event"
    },
    {
      "anonymous": false,
      "inputs": [
        {
          "indexed": true,
          "internalType": "address",
          "name": "from",
          "type": "address"
        },
        {
          "indexed": true,
          "internalType": "address",
          "name": "to",
          "type": "address"
        },
        {
          "indexed": true,
          "internalType": "uint256",
          "name": "tokenId",
          "type": "uint256"
        }
      ],
      "name": "Transfer",
      "type": "event"
    },
    {
      "inputs": [],
      "name": "DEFAULT_ADMIN_ROLE",
      "outputs": [
        {
          "internalType": "bytes32",
          "name": "",
          "type": "bytes32"
        }
      ],
      "stateMutability": "view",
      "type": "function"
    },
    {
      "inputs": [
        {
          "internalType": "uint256",
          "name": "tokenId",
          "type": "uint256"
        }
      ],
      "name": "_getTokenRoyalty",
      "outputs": [
        {
          "components": [
            {
              "internalType": "address",
              "name": "recipient",
              "type": "address"
            },
            {
              "internalType": "uint24",
              "name": "amount",
              "type": "uint24"
            }
          ],
          "internalType": "struct ERC2981Base.RoyaltyInfo",
          "name": "_royaltyInfo",
          "type": "tuple"
        }
      ],
      "stateMutability": "view",
      "type": "function"
    },
    {
      "inputs": [
        {
          "internalType": "uint256",
          "name": "",
          "type": "uint256"
        }
      ],
      "name": "_tokenCreators",
      "outputs": [
        {
          "internalType": "address",
          "name": "",
          "type": "address"
        }
      ],
      "stateMutability": "view",
      "type": "function"
    },
    {
      "inputs": [
        {
          "internalType": "address",
          "name": "to",
          "type": "address"
        },
        {
          "internalType": "uint256",
          "name": "tokenId",
          "type": "uint256"
        }
      ],
      "name": "approve",
      "outputs": [],
      "stateMutability": "nonpayable",
      "type": "function"
    },
    {
      "inputs": [
        {
          "internalType": "address",
          "name": "to",
          "type": "address"
        },
        {
          "internalType": "uint256[]",
          "name": "tokenIds",
          "type": "uint256[]"
        }
      ],
      "name": "approveBulk",
      "outputs": [],
      "stateMutability": "nonpayable",
      "type": "function"
    },
    {
      "inputs": [
        {
          "internalType": "address",
          "name": "owner",
          "type": "address"
        }
      ],
      "name": "balanceOf",
      "outputs": [
        {
          "internalType": "uint256",
          "name": "",
          "type": "uint256"
        }
      ],
      "stateMutability": "view",
      "type": "function"
    },
    {
      "inputs": [
        {
          "internalType": "uint256",
          "name": "tokenId",
          "type": "uint256"
        }
      ],
      "name": "burn",
      "outputs": [],
      "stateMutability": "nonpayable",
      "type": "function"
    },
    {
      "inputs": [
        {
          "internalType": "uint256",
          "name": "tokenId",
          "type": "uint256"
        }
      ],
      "name": "getApproved",
      "outputs": [
        {
          "internalType": "address",
          "name": "",
          "type": "address"
        }
      ],
      "stateMutability": "view",
      "type": "function"
    },
    {
      "inputs": [
        {
          "internalType": "uint256[]",
          "name": "tokenIds",
          "type": "uint256[]"
        }
      ],
      "name": "getApprovedBulk",
      "outputs": [
        {
          "internalType": "address[]",
          "name": "",
          "type": "address[]"
        }
      ],
      "stateMutability": "view",
      "type": "function"
    },
    {
      "inputs": [
        {
          "internalType": "uint256",
          "name": "tokenId",
          "type": "uint256"
        }
      ],
      "name": "getCreator",
      "outputs": [
        {
          "internalType": "address",
          "name": "",
          "type": "address"
        }
      ],
      "stateMutability": "view",
      "type": "function"
    },
    {
      "inputs": [
        {
          "internalType": "bytes32",
          "name": "role",
          "type": "bytes32"
        }
      ],
      "name": "getRoleAdmin",
      "outputs": [
        {
          "internalType": "bytes32",
          "name": "",
          "type": "bytes32"
        }
      ],
      "stateMutability": "view",
      "type": "function"
    },
    {
      "inputs": [
        {
          "internalType": "uint256",
          "name": "tokenId",
          "type": "uint256"
        }
      ],
      "name": "getTokenRoyalty",
      "outputs": [
        {
          "components": [
            {
              "internalType": "address",
              "name": "recipient",
              "type": "address"
            },
            {
              "internalType": "uint24",
              "name": "amount",
              "type": "uint24"
            }
          ],
          "internalType": "struct ERC2981Base.RoyaltyInfo",
          "name": "_royaltyInfo",
          "type": "tuple"
        }
      ],
      "stateMutability": "view",
      "type": "function"
    },
    {
      "inputs": [
        {
          "internalType": "bytes32",
          "name": "role",
          "type": "bytes32"
        },
        {
          "internalType": "address",
          "name": "account",
          "type": "address"
        }
      ],
      "name": "grantRole",
      "outputs": [],
      "stateMutability": "nonpayable",
      "type": "function"
    },
    {
      "inputs": [
        {
          "internalType": "bytes32",
          "name": "role",
          "type": "bytes32"
        },
        {
          "internalType": "address",
          "name": "account",
          "type": "address"
        }
      ],
      "name": "hasRole",
      "outputs": [
        {
          "internalType": "bool",
          "name": "",
          "type": "bool"
        }
      ],
      "stateMutability": "view",
      "type": "function"
    },
    {
      "inputs": [
        {
          "internalType": "address",
          "name": "owner",
          "type": "address"
        },
        {
          "internalType": "address",
          "name": "operator",
          "type": "address"
        }
      ],
      "name": "isApprovedForAll",
      "outputs": [
        {
          "internalType": "bool",
          "name": "",
          "type": "bool"
        }
      ],
      "stateMutability": "view",
      "type": "function"
    },
    {
      "inputs": [
        {
          "components": [
            {
              "internalType": "uint256",
              "name": "tokenId",
              "type": "uint256"
            },
            {
              "internalType": "string",
              "name": "uri",
              "type": "string"
            },
            {
              "internalType": "address",
              "name": "creator",
              "type": "address"
            }
          ],
          "internalType": "struct VLXNFT.NFTVoucher",
          "name": "voucher",
          "type": "tuple"
        },
        {
          "internalType": "uint256",
          "name": "royaltyValue",
          "type": "uint256"
        }
      ],
      "name": "mint",
      "outputs": [
        {
          "internalType": "uint256",
          "name": "",
          "type": "uint256"
        }
      ],
      "stateMutability": "nonpayable",
      "type": "function"
    },
    {
      "inputs": [],
      "name": "name",
      "outputs": [
        {
          "internalType": "string",
          "name": "",
          "type": "string"
        }
      ],
      "stateMutability": "view",
      "type": "function"
    },
    {
      "inputs": [],
      "name": "owner",
      "outputs": [
        {
          "internalType": "address",
          "name": "",
          "type": "address"
        }
      ],
      "stateMutability": "view",
      "type": "function"
    },
    {
      "inputs": [
        {
          "internalType": "uint256",
          "name": "tokenId",
          "type": "uint256"
        }
      ],
      "name": "ownerOf",
      "outputs": [
        {
          "internalType": "address",
          "name": "",
          "type": "address"
        }
      ],
      "stateMutability": "view",
      "type": "function"
    },
    {
      "inputs": [],
      "name": "renounceOwnership",
      "outputs": [],
      "stateMutability": "nonpayable",
      "type": "function"
    },
    {
      "inputs": [
        {
          "internalType": "bytes32",
          "name": "role",
          "type": "bytes32"
        },
        {
          "internalType": "address",
          "name": "account",
          "type": "address"
        }
      ],
      "name": "renounceRole",
      "outputs": [],
      "stateMutability": "nonpayable",
      "type": "function"
    },
    {
      "inputs": [
        {
          "internalType": "bytes32",
          "name": "role",
          "type": "bytes32"
        },
        {
          "internalType": "address",
          "name": "account",
          "type": "address"
        }
      ],
      "name": "revokeRole",
      "outputs": [],
      "stateMutability": "nonpayable",
      "type": "function"
    },
    {
      "inputs": [
        {
          "internalType": "uint256",
          "name": "tokenId",
          "type": "uint256"
        },
        {
          "internalType": "uint256",
          "name": "value",
          "type": "uint256"
        }
      ],
      "name": "royaltyInfo",
      "outputs": [
        {
          "internalType": "address",
          "name": "receiver",
          "type": "address"
        },
        {
          "internalType": "uint256",
          "name": "royaltyAmount",
          "type": "uint256"
        }
      ],
      "stateMutability": "view",
      "type": "function"
    },
    {
      "inputs": [
        {
          "internalType": "address",
          "name": "from",
          "type": "address"
        },
        {
          "internalType": "address",
          "name": "to",
          "type": "address"
        },
        {
          "internalType": "uint256",
          "name": "tokenId",
          "type": "uint256"
        }
      ],
      "name": "safeTransferFrom",
      "outputs": [],
      "stateMutability": "nonpayable",
      "type": "function"
    },
    {
      "inputs": [
        {
          "internalType": "address",
          "name": "from",
          "type": "address"
        },
        {
          "internalType": "address",
          "name": "to",
          "type": "address"
        },
        {
          "internalType": "uint256",
          "name": "tokenId",
          "type": "uint256"
        },
        {
          "internalType": "bytes",
          "name": "_data",
          "type": "bytes"
        }
      ],
      "name": "safeTransferFrom",
      "outputs": [],
      "stateMutability": "nonpayable",
      "type": "function"
    },
    {
      "inputs": [
        {
          "internalType": "address",
          "name": "operator",
          "type": "address"
        },
        {
          "internalType": "bool",
          "name": "approved",
          "type": "bool"
        }
      ],
      "name": "setApprovalForAll",
      "outputs": [],
      "stateMutability": "nonpayable",
      "type": "function"
    },
    {
      "inputs": [
        {
          "internalType": "bytes4",
          "name": "interfaceId",
          "type": "bytes4"
        }
      ],
      "name": "supportsInterface",
      "outputs": [
        {
          "internalType": "bool",
          "name": "",
          "type": "bool"
        }
      ],
      "stateMutability": "view",
      "type": "function"
    },
    {
      "inputs": [],
      "name": "symbol",
      "outputs": [
        {
          "internalType": "string",
          "name": "",
          "type": "string"
        }
      ],
      "stateMutability": "view",
      "type": "function"
    },
    {
      "inputs": [
        {
          "internalType": "uint256",
          "name": "tokenId",
          "type": "uint256"
        }
      ],
      "name": "tokenURI",
      "outputs": [
        {
          "internalType": "string",
          "name": "",
          "type": "string"
        }
      ],
      "stateMutability": "view",
      "type": "function"
    },
    {
      "inputs": [
        {
          "internalType": "address",
          "name": "from",
          "type": "address"
        },
        {
          "internalType": "address",
          "name": "to",
          "type": "address"
        },
        {
          "internalType": "uint256",
          "name": "tokenId",
          "type": "uint256"
        }
      ],
      "name": "transferFrom",
      "outputs": [],
      "stateMutability": "nonpayable",
      "type": "function"
    },
    {
      "inputs": [
        {
          "internalType": "address",
          "name": "newOwner",
          "type": "address"
        }
      ],
      "name": "transferOwnership",
      "outputs": [],
      "stateMutability": "nonpayable",
      "type": "function"
    }
  ],
  "bytecode": "0x60806040523480156200001157600080fd5b50604051620029ec380380620029ec833981016040819052620000349162000237565b8151829082906200004d906000906020850190620000de565b50805162000063906001906020840190620000de565b505050620000806200007a6200008860201b60201c565b6200008c565b5050620002f1565b3390565b600980546001600160a01b038381166001600160a01b0319831681179093556040519116919082907f8be0079c531659141344cd1fd0a4f28419497f9722a3daafe3b4186f6b6457e090600090a35050565b828054620000ec906200029e565b90600052602060002090601f0160209004810192826200011057600085556200015b565b82601f106200012b57805160ff19168380011785556200015b565b828001600101855582156200015b579182015b828111156200015b5782518255916020019190600101906200013e565b50620001699291506200016d565b5090565b5b808211156200016957600081556001016200016e565b600082601f83011262000195578081fd5b81516001600160401b0380821115620001b257620001b2620002db565b604051601f8301601f19908116603f01168101908282118183101715620001dd57620001dd620002db565b81604052838152602092508683858801011115620001f9578485fd5b8491505b838210156200021c5785820183015181830184015290820190620001fd565b838211156200022d57848385830101525b9695505050505050565b600080604083850312156200024a578182fd5b82516001600160401b038082111562000261578384fd5b6200026f8683870162000184565b9350602085015191508082111562000285578283fd5b50620002948582860162000184565b9150509250929050565b600181811c90821680620002b357607f821691505b60208210811415620002d557634e487b7160e01b600052602260045260246000fd5b50919050565b634e487b7160e01b600052604160045260246000fd5b6126eb80620003016000396000f3fe608060405234801561001057600080fd5b50600436106101e55760003560e01c8063724e68ed1161010f578063a22cb465116100a2578063d547741f11610071578063d547741f14610498578063dae37d43146104ab578063e985e9c5146104be578063f2fde38b146104fa57600080fd5b8063a22cb46514610436578063b88d4fde14610449578063c87b56dd1461045c578063d48e638a1461046f57600080fd5b806391d14854116100de57806391d148541461040057806393e2aef41461041357806395d89b4114610426578063a217fddf1461042e57600080fd5b8063724e68ed1461036a5780637724a6b11461038a578063833b7b78146103b35780638da5cb5b146103ef57600080fd5b80632a55205a1161018757806342966c681161015657806342966c68146103295780636352211e1461033c57806370a082311461034f578063715018a61461036257600080fd5b80632a55205a146102be5780632f2ff15d146102f057806336568abe1461030357806342842e0e1461031657600080fd5b8063081812fc116101c3578063081812fc1461023c578063095ea7b31461026757806323b872dd1461027a578063248a9ca31461028d57600080fd5b806301ffc9a7146101ea5780630260a4ea1461021257806306fdde0314610227575b600080fd5b6101fd6101f836600461222f565b61050d565b60405190151581526020015b60405180910390f35b61022561022036600461211d565b61051e565b005b61022f610570565b604051610209919061241b565b61024f61024a3660046121f5565b610602565b6040516001600160a01b039091168152602001610209565b610225610275366004612199565b61068f565b61022561028836600461202a565b6107a0565b6102b061029b3660046121f5565b60009081526008602052604090206001015490565b604051908152602001610209565b6102d16102cc3660046122a0565b6107d2565b604080516001600160a01b039093168352602083019190915201610209565b6102256102fe36600461220d565b610830565b61022561031136600461220d565b610856565b61022561032436600461202a565b6108d4565b6102256103373660046121f5565b6108ef565b61024f61034a3660046121f5565b610950565b6102b061035d366004611fde565b6109c7565b610225610a4e565b61037d6103783660046121c2565b610ab4565b60405161020991906123ce565b61024f6103983660046121f5565b600a602052600090815260409020546001600160a01b031681565b6103c66103c13660046121f5565b610b97565b6040805182516001600160a01b0316815260209283015162ffffff169281019290925201610209565b6009546001600160a01b031661024f565b6101fd61040e36600461220d565b610bb4565b6103c66104213660046121f5565b610bdf565b61022f610c2e565b6102b0600081565b61022561044436600461215f565b610c3d565b610225610457366004612065565b610c48565b61022f61046a3660046121f5565b610c80565b61024f61047d3660046121f5565b6000908152600a60205260409020546001600160a01b031690565b6102256104a636600461220d565b610df7565b6102b06104b9366004612267565b610e1d565b6101fd6104cc366004611ff8565b6001600160a01b03918216600090815260056020908152604080832093909416825291909152205460ff1690565b610225610508366004611fde565b610f35565b600061051882610ffd565b92915050565b60005b815181101561056b5761055b8383838151811061054e57634e487b7160e01b600052603260045260246000fd5b602002602001015161068f565b6105648161262e565b9050610521565b505050565b60606000805461057f906125f3565b80601f01602080910402602001604051908101604052809291908181526020018280546105ab906125f3565b80156105f85780601f106105cd576101008083540402835291602001916105f8565b820191906000526020600020905b8154815290600101906020018083116105db57829003601f168201915b5050505050905090565b600061060d82611022565b6106735760405162461bcd60e51b815260206004820152602c60248201527f4552433732313a20617070726f76656420717565727920666f72206e6f6e657860448201526b34b9ba32b73a103a37b5b2b760a11b60648201526084015b60405180910390fd5b506000908152600460205260409020546001600160a01b031690565b600061069a82610950565b9050806001600160a01b0316836001600160a01b031614156107085760405162461bcd60e51b815260206004820152602160248201527f4552433732313a20617070726f76616c20746f2063757272656e74206f776e656044820152603960f91b606482015260840161066a565b336001600160a01b0382161480610724575061072481336104cc565b6107965760405162461bcd60e51b815260206004820152603860248201527f4552433732313a20617070726f76652063616c6c6572206973206e6f74206f7760448201527f6e6572206e6f7220617070726f76656420666f7220616c6c0000000000000000606482015260840161066a565b61056b838361103f565b6107ab335b826110ad565b6107c75760405162461bcd60e51b815260040161066a90612480565b61056b838383611193565b60008281526007602090815260408083208151808301909252546001600160a01b038116808352600160a01b90910462ffffff1692820183905292916127109061081c908661257a565b6108269190612566565b9150509250929050565b60008281526008602052604090206001015461084c813361132f565b61056b8383611393565b6001600160a01b03811633146108c65760405162461bcd60e51b815260206004820152602f60248201527f416363657373436f6e74726f6c3a2063616e206f6e6c792072656e6f756e636560448201526e103937b632b9903337b91039b2b63360891b606482015260840161066a565b6108d08282611419565b5050565b61056b83838360405180602001604052806000815250610c48565b6108f8336107a5565b6109445760405162461bcd60e51b815260206004820181905260248201527f63616c6c6572206973206e6f74206f776e6572206e6f7220617070726f766564604482015260640161066a565b61094d81611480565b50565b6000818152600260205260408120546001600160a01b0316806105185760405162461bcd60e51b815260206004820152602960248201527f4552433732313a206f776e657220717565727920666f72206e6f6e657869737460448201526832b73a103a37b5b2b760b91b606482015260840161066a565b60006001600160a01b038216610a325760405162461bcd60e51b815260206004820152602a60248201527f4552433732313a2062616c616e636520717565727920666f7220746865207a65604482015269726f206164647265737360b01b606482015260840161066a565b506001600160a01b031660009081526003602052604090205490565b6009546001600160a01b03163314610aa85760405162461bcd60e51b815260206004820181905260248201527f4f776e61626c653a2063616c6c6572206973206e6f7420746865206f776e6572604482015260640161066a565b610ab260006114c0565b565b60606000825167ffffffffffffffff811115610ae057634e487b7160e01b600052604160045260246000fd5b604051908082528060200260200182016040528015610b09578160200160208202803683370190505b50905060005b8351811015610b9057610b48848281518110610b3b57634e487b7160e01b600052603260045260246000fd5b6020026020010151610602565b828281518110610b6857634e487b7160e01b600052603260045260246000fd5b6001600160a01b0390921660209283029190910190910152610b898161262e565b9050610b0f565b5092915050565b604080518082019091526000808252602082015261051882610bdf565b60009182526008602090815260408084206001600160a01b0393909316845291905290205460ff1690565b6040805180820190915260008082526020820152506000908152600760209081526040918290208251808401909352546001600160a01b0381168352600160a01b900462ffffff169082015290565b60606001805461057f906125f3565b6108d0338383611512565b610c5233836110ad565b610c6e5760405162461bcd60e51b815260040161066a90612480565b610c7a848484846115e1565b50505050565b6060610c8b82611022565b610cf15760405162461bcd60e51b815260206004820152603160248201527f45524337323155524953746f726167653a2055524920717565727920666f72206044820152703737b732bc34b9ba32b73a103a37b5b2b760791b606482015260840161066a565b60008281526006602052604081208054610d0a906125f3565b80601f0160208091040260200160405190810160405280929190818152602001828054610d36906125f3565b8015610d835780601f10610d5857610100808354040283529160200191610d83565b820191906000526020600020905b815481529060010190602001808311610d6657829003601f168201915b505050505090506000610da160408051602081019091526000815290565b9050805160001415610db4575092915050565b815115610de6578082604051602001610dce9291906122ed565b60405160208183030381529060405292505050919050565b610def84611614565b949350505050565b600082815260086020526040902060010154610e13813361132f565b61056b8383611419565b6000808211610e6e5760405162461bcd60e51b815260206004820152601e60248201527f526f79616c7479206d7573742062652067726561746572207468616e20300000604482015260640161066a565b610e88610e816060850160408601611fde565b84356116ec565b610ed48335610e9a60208601866124d1565b8080601f01602080910402602001604051908101604052809392919081815260200183838082843760009201919091525061181f92505050565b610eef8335610ee96060860160408701611fde565b846118aa565b610eff6060840160408501611fde565b92356000818152600a6020526040902080546001600160a01b0319166001600160a01b0395909516949094179093555090919050565b6009546001600160a01b03163314610f8f5760405162461bcd60e51b815260206004820181905260248201527f4f776e61626c653a2063616c6c6572206973206e6f7420746865206f776e6572604482015260640161066a565b6001600160a01b038116610ff45760405162461bcd60e51b815260206004820152602660248201527f4f776e61626c653a206e6577206f776e657220697320746865207a65726f206160448201526564647265737360d01b606482015260840161066a565b61094d816114c0565b60006001600160e01b03198216637965db0b60e01b1480610518575061051882611953565b6000908152600260205260409020546001600160a01b0316151590565b600081815260046020526040902080546001600160a01b0319166001600160a01b038416908117909155819061107482610950565b6001600160a01b03167f8c5be1e5ebec7d5bd14f71427d1e84f3dd0314c0f7b2291e5b200ac8c7c3b92560405160405180910390a45050565b60006110b882611022565b6111195760405162461bcd60e51b815260206004820152602c60248201527f4552433732313a206f70657261746f7220717565727920666f72206e6f6e657860448201526b34b9ba32b73a103a37b5b2b760a11b606482015260840161066a565b600061112483610950565b9050806001600160a01b0316846001600160a01b0316148061115f5750836001600160a01b031661115484610602565b6001600160a01b0316145b80610def57506001600160a01b0380821660009081526005602090815260408083209388168352929052205460ff16610def565b826001600160a01b03166111a682610950565b6001600160a01b03161461120a5760405162461bcd60e51b815260206004820152602560248201527f4552433732313a207472616e736665722066726f6d20696e636f72726563742060448201526437bbb732b960d91b606482015260840161066a565b6001600160a01b03821661126c5760405162461bcd60e51b8152602060048201526024808201527f4552433732313a207472616e7366657220746f20746865207a65726f206164646044820152637265737360e01b606482015260840161066a565b61127760008261103f565b6001600160a01b03831660009081526003602052604081208054600192906112a0908490612599565b90915550506001600160a01b03821660009081526003602052604081208054600192906112ce90849061254e565b909155505060008181526002602052604080822080546001600160a01b0319166001600160a01b0386811691821790925591518493918716917fddf252ad1be2c89b69c2b068fc378daa952ba7f163c4a11628f55a4df523b3ef91a4505050565b6113398282610bb4565b6108d057611351816001600160a01b03166014611978565b61135c836020611978565b60405160200161136d92919061231c565b60408051601f198184030181529082905262461bcd60e51b825261066a9160040161241b565b61139d8282610bb4565b6108d05760008281526008602090815260408083206001600160a01b03851684529091529020805460ff191660011790556113d53390565b6001600160a01b0316816001600160a01b0316837f2f8788117e7eff1d82e926ec794901d17c78024a50270940304540a733656f0d60405160405180910390a45050565b6114238282610bb4565b156108d05760008281526008602090815260408083206001600160a01b0385168085529252808320805460ff1916905551339285917ff6391f5c32d9c69d2a47ea670b442974b53935d1edc7fd64eb21e047a839171b9190a45050565b61148981611b5a565b600081815260066020526040902080546114a2906125f3565b15905061094d57600081815260066020526040812061094d91611e6c565b600980546001600160a01b038381166001600160a01b0319831681179093556040519116919082907f8be0079c531659141344cd1fd0a4f28419497f9722a3daafe3b4186f6b6457e090600090a35050565b816001600160a01b0316836001600160a01b031614156115745760405162461bcd60e51b815260206004820152601960248201527f4552433732313a20617070726f766520746f2063616c6c657200000000000000604482015260640161066a565b6001600160a01b03838116600081815260056020908152604080832094871680845294825291829020805460ff191686151590811790915591519182527f17307eab39ab6107e8899845ad3d59bd9653f200f220920489ca2b5937696c31910160405180910390a3505050565b6115ec848484611193565b6115f884848484611bf5565b610c7a5760405162461bcd60e51b815260040161066a9061242e565b606061161f82611022565b6116835760405162461bcd60e51b815260206004820152602f60248201527f4552433732314d657461646174613a2055524920717565727920666f72206e6f60448201526e3732bc34b9ba32b73a103a37b5b2b760891b606482015260840161066a565b600061169a60408051602081019091526000815290565b905060008151116116ba57604051806020016040528060008152506116e5565b806116c484611d02565b6040516020016116d59291906122ed565b6040516020818303038152906040525b9392505050565b6001600160a01b0382166117425760405162461bcd60e51b815260206004820181905260248201527f4552433732313a206d696e7420746f20746865207a65726f2061646472657373604482015260640161066a565b61174b81611022565b156117985760405162461bcd60e51b815260206004820152601c60248201527f4552433732313a20746f6b656e20616c7265616479206d696e74656400000000604482015260640161066a565b6001600160a01b03821660009081526003602052604081208054600192906117c190849061254e565b909155505060008181526002602052604080822080546001600160a01b0319166001600160a01b03861690811790915590518392907fddf252ad1be2c89b69c2b068fc378daa952ba7f163c4a11628f55a4df523b3ef908290a45050565b61182882611022565b61188b5760405162461bcd60e51b815260206004820152602e60248201527f45524337323155524953746f726167653a2055524920736574206f66206e6f6e60448201526d32bc34b9ba32b73a103a37b5b2b760911b606482015260840161066a565b6000828152600660209081526040909120825161056b92840190611ea6565b6127108111156118fc5760405162461bcd60e51b815260206004820152601a60248201527f45524332393831526f79616c746965733a20546f6f2068696768000000000000604482015260640161066a565b6040805180820182526001600160a01b03938416815262ffffff928316602080830191825260009687526007905291909420935184549151909216600160a01b026001600160b81b03199091169190921617179055565b60006001600160e01b0319821663152a902d60e11b1480610518575061051882611e1c565b6060600061198783600261257a565b61199290600261254e565b67ffffffffffffffff8111156119b857634e487b7160e01b600052604160045260246000fd5b6040519080825280601f01601f1916602001820160405280156119e2576020820181803683370190505b509050600360fc1b81600081518110611a0b57634e487b7160e01b600052603260045260246000fd5b60200101906001600160f81b031916908160001a905350600f60fb1b81600181518110611a4857634e487b7160e01b600052603260045260246000fd5b60200101906001600160f81b031916908160001a9053506000611a6c84600261257a565b611a7790600161254e565b90505b6001811115611b0b576f181899199a1a9b1b9c1cb0b131b232b360811b85600f1660108110611ab957634e487b7160e01b600052603260045260246000fd5b1a60f81b828281518110611add57634e487b7160e01b600052603260045260246000fd5b60200101906001600160f81b031916908160001a90535060049490941c93611b04816125dc565b9050611a7a565b5083156116e55760405162461bcd60e51b815260206004820181905260248201527f537472696e67733a20686578206c656e67746820696e73756666696369656e74604482015260640161066a565b6000611b6582610950565b9050611b7260008361103f565b6001600160a01b0381166000908152600360205260408120805460019290611b9b908490612599565b909155505060008281526002602052604080822080546001600160a01b0319169055518391906001600160a01b038416907fddf252ad1be2c89b69c2b068fc378daa952ba7f163c4a11628f55a4df523b3ef908390a45050565b60006001600160a01b0384163b15611cf757604051630a85bd0160e11b81526001600160a01b0385169063150b7a0290611c39903390899088908890600401612391565b602060405180830381600087803b158015611c5357600080fd5b505af1925050508015611c83575060408051601f3d908101601f19168201909252611c809181019061224b565b60015b611cdd573d808015611cb1576040519150601f19603f3d011682016040523d82523d6000602084013e611cb6565b606091505b508051611cd55760405162461bcd60e51b815260040161066a9061242e565b805181602001fd5b6001600160e01b031916630a85bd0160e11b149050610def565b506001949350505050565b606081611d265750506040805180820190915260018152600360fc1b602082015290565b8160005b8115611d505780611d3a8161262e565b9150611d499050600a83612566565b9150611d2a565b60008167ffffffffffffffff811115611d7957634e487b7160e01b600052604160045260246000fd5b6040519080825280601f01601f191660200182016040528015611da3576020820181803683370190505b5090505b8415610def57611db8600183612599565b9150611dc5600a86612649565b611dd090603061254e565b60f81b818381518110611df357634e487b7160e01b600052603260045260246000fd5b60200101906001600160f81b031916908160001a905350611e15600a86612566565b9450611da7565b60006001600160e01b031982166380ac58cd60e01b1480611e4d57506001600160e01b03198216635b5e139f60e01b145b8061051857506301ffc9a760e01b6001600160e01b0319831614610518565b508054611e78906125f3565b6000825580601f10611e88575050565b601f01602090049060005260206000209081019061094d9190611f2a565b828054611eb2906125f3565b90600052602060002090601f016020900481019282611ed45760008555611f1a565b82601f10611eed57805160ff1916838001178555611f1a565b82800160010185558215611f1a579182015b82811115611f1a578251825591602001919060010190611eff565b50611f26929150611f2a565b5090565b5b80821115611f265760008155600101611f2b565b80356001600160a01b0381168114611f5657600080fd5b919050565b600082601f830112611f6b578081fd5b8135602067ffffffffffffffff821115611f8757611f87612689565b8160051b611f9682820161251d565b838152828101908684018388018501891015611fb0578687fd5b8693505b85841015611fd2578035835260019390930192918401918401611fb4565b50979650505050505050565b600060208284031215611fef578081fd5b6116e582611f3f565b6000806040838503121561200a578081fd5b61201383611f3f565b915061202160208401611f3f565b90509250929050565b60008060006060848603121561203e578081fd5b61204784611f3f565b925061205560208501611f3f565b9150604084013590509250925092565b6000806000806080858703121561207a578081fd5b61208385611f3f565b93506020612092818701611f3f565b935060408601359250606086013567ffffffffffffffff808211156120b5578384fd5b818801915088601f8301126120c8578384fd5b8135818111156120da576120da612689565b6120ec601f8201601f1916850161251d565b91508082528984828501011115612101578485fd5b8084840185840137810190920192909252939692955090935050565b6000806040838503121561212f578182fd5b61213883611f3f565b9150602083013567ffffffffffffffff811115612153578182fd5b61082685828601611f5b565b60008060408385031215612171578182fd5b61217a83611f3f565b91506020830135801515811461218e578182fd5b809150509250929050565b600080604083850312156121ab578182fd5b6121b483611f3f565b946020939093013593505050565b6000602082840312156121d3578081fd5b813567ffffffffffffffff8111156121e9578182fd5b610def84828501611f5b565b600060208284031215612206578081fd5b5035919050565b6000806040838503121561221f578182fd5b8235915061202160208401611f3f565b600060208284031215612240578081fd5b81356116e58161269f565b60006020828403121561225c578081fd5b81516116e58161269f565b60008060408385031215612279578182fd5b823567ffffffffffffffff81111561228f578283fd5b8301606081860312156121b4578283fd5b600080604083850312156122b2578182fd5b50508035926020909101359150565b600081518084526122d98160208601602086016125b0565b601f01601f19169290920160200192915050565b600083516122ff8184602088016125b0565b8351908301906123138183602088016125b0565b01949350505050565b7f416363657373436f6e74726f6c3a206163636f756e74200000000000000000008152600083516123548160178501602088016125b0565b7001034b99036b4b9b9b4b733903937b6329607d1b60179184019182015283516123858160288401602088016125b0565b01602801949350505050565b6001600160a01b03858116825284166020820152604081018390526080606082018190526000906123c4908301846122c1565b9695505050505050565b6020808252825182820181905260009190848201906040850190845b8181101561240f5783516001600160a01b0316835292840192918401916001016123ea565b50909695505050505050565b6020815260006116e560208301846122c1565b60208082526032908201527f4552433732313a207472616e7366657220746f206e6f6e20455243373231526560408201527131b2b4bb32b91034b6b83632b6b2b73a32b960711b606082015260800190565b60208082526031908201527f4552433732313a207472616e736665722063616c6c6572206973206e6f74206f6040820152701ddb995c881b9bdc88185c1c1c9bdd9959607a1b606082015260800190565b6000808335601e198436030181126124e7578283fd5b83018035915067ffffffffffffffff821115612501578283fd5b60200191503681900382131561251657600080fd5b9250929050565b604051601f8201601f1916810167ffffffffffffffff8111828210171561254657612546612689565b604052919050565b600082198211156125615761256161265d565b500190565b60008261257557612575612673565b500490565b60008160001904831182151516156125945761259461265d565b500290565b6000828210156125ab576125ab61265d565b500390565b60005b838110156125cb5781810151838201526020016125b3565b83811115610c7a5750506000910152565b6000816125eb576125eb61265d565b506000190190565b600181811c9082168061260757607f821691505b6020821081141561262857634e487b7160e01b600052602260045260246000fd5b50919050565b60006000198214156126425761264261265d565b5060010190565b60008261265857612658612673565b500690565b634e487b7160e01b600052601160045260246000fd5b634e487b7160e01b600052601260045260246000fd5b634e487b7160e01b600052604160045260246000fd5b6001600160e01b03198116811461094d57600080fdfea26469706673582212200d3bc4c25118d1d1fb55f4c5730aeeb4add6452ad32d0de31b04dfc249b97b2764736f6c63430008040033",
  "linkReferences": {},
  "deployedLinkReferences": {}
}